:020000040800F2
:10000000500C00200D020008C5110008C9040008AA
:10001000C1110008BF0200084115000800000000DF
:10002000000000000000000000000000EB120008CB
:10003000C302000800000000E9120008D513000800
:1000400027020008270200082702000827020008EC
:1000500027020008270200082702000827020008DC
:10006000B50400082702000827020008270200083C
:1000700027020008270200082702000827020008BC
:1000800027020008270200082702000827020008AC
:10009000270200082702000827020008270200089C
:1000A000270200082702000827020008270200088C
:1000B000270200085514000827020008270200083C
:1000C000270200082702000827020008270200086C
:1000D000270200082702000827020008270200085C
:1000E000D1020008270200082702000827020008A2
:1000F000270200082702000827020008270200083C
:10010000270200082702000827020008270200082B
:10011000270200082702000827020008270200081B
:10012000270200082702000827020008270200080B
:1001300000F002F800F05AF80AA090E8000C82449F
:100140008344AAF10107DA4501D100F04FF8AFF27C
:10015000090EBAE80F0013F0010F18BFFB1A43F0A5
:1001600001031847A4330000C43300000A444FF0D1
:10017000000C10F8013B13F0070408BF10F8014B06
:100180001D1108BF10F8015B641E05D010F8016B4B
:10019000641E01F8016BF9D113F0080F1EBF10F8AF
:1001A000014BAD1C0C1B09D16D1E58BF01F801CBD2
:1001B000FAD505E014F8016B01F8016B6D1EF9D555
:1001C0009142D6D37047000000230024002500266A
:1001D000103A28BF78C1FBD8520728BF30C148BFAA
:1001E0000B6070471FB51FBD10B510BD00F031F892
:1001F0001146FFF7F7FF01F035FE00F04FF803B4AA
:10020000FFF7F2FF03BC00F053F8000009488047F5
:1002100009480047FEE7FEE7FEE7FEE7FEE7FEE7E8
:10022000FEE7FEE7FEE7FEE704480549054A064B00
:1002300070470000F5130008310100085006002047
:10024000500C0020500800205008002070477047D4
:100250007047754600F028F8AE46050069465346DB
:1002600020F00700854618B020B5FFF7DDFFBDE898
:1002700020404FF000064FF000074FF000084FF00D
:10028000000B21F00701AC46ACE8C009ACE8C0099E
:10029000ACE8C009ACE8C0098D4670470446AFF32E
:1002A00000802046FFF7ABFF00487047F0050020B4
:1002B00001491820ABBEFEE726000200704700BFD0
:1002C000FEE77047002100E0491C8142FCD37047E3
:1002D00010B560480068401C5E4908605E48806850
:1002E00000F4806070B10846006801280AD9084609
:1002F0000078801E012101FA00F05849096808437E
:1003000056490860534800680B2875D15348007857
:1003100052490860084600686938152817D2DFE896
:1003200000F017903B5F9090900B842347536C90A4
:100330009090902F9090780049A1012001F0D4F87E
:10034000002000F041FF4FF4FA70FFF7BBFF78E0A8
:1003500045A1012001F0C8F8012000F035FF4FF45D
:10036000FA70FFF7AFFF6CE041A1012001F0BCF88B
:10037000022000F029FF4FF4FA70FFF7A3FF60E0BE
:100380003DA1012001F0B0F8032000F01DFF4FF463
:10039000FA70FFF797FF54E039A1012001F0A4F8AB
:1003A000042000F011FF4FF4FA70FFF78BFF48E0D4
:1003B00033A1012001F098F8052000F005FF4FF46B
:1003C000FA70FFF77FFF3CE02FA1012001F08CF8CD
:1003D000062000F0F9FE4FF4FA70FFF773FF30E0EB
:1003E0002BA1012001F080F8072000F0EDFE4FF472
:1003F000FA70FFF767FF24E024E027A1012001F055
:1004000073F8082000F0E0FE4FF47A70FFF75AFF0F
:1004100017E023A1012001F067F8092000F0D4FEC5
:100420004FF4FA70FFF74EFF0BE01FA1012001F01F
:100430005BF80B2000F0C8FE4FF4FA70FFF742FFA4
:1004400000BF00BF0A20FFF73DFF4FF400601849CE
:10045000086010BD04000020001001400C000020C6
:100460006B657920302000006B6579203120000019
:100470006B657920322000006B6579203320000005
:100480006B657920342000006B65792036200000F0
:100490006B657920372000006B65792038200000DB
:1004A0006B657920392000006B6579202E200000D3
:1004B0001404014000B501F0C5FA042001490860A8
:1004C00000BD00001404014000BFFEE71148806930
:1004D00040F008000F4988610F48006820F4700060
:1004E0000D4908600846006840F44010086009485B
:1004F000806940F04000074988610848006820F49E
:100500007000064908600846006840F44010086022
:100510007047000000100240000C0140001801402C
:10052000014601F007021202054B18684FF6FF035F
:100530001840044B18431043014B186070470000EB
:100540000CED00E00000FA052348806940F010003F
:10055000214988612148406820F470401F49486063
:100560000846406840F4004048600846C06840F4CF
:100570000060C8601848806940F001001649886131
:100580001748006920F4704115480161006940F482
:100590000051134801611348006840F4006011499C
:1005A000086010480C30006840F400600D490C31C0
:1005B000086020210C4801700C48006820F480700D
:1005C0004FF0E021C1F804010846D0F8040140F4DE
:1005D0008070C1F804017047001002400010014013
:1005E000000001400004014028E400E004E100E0D4
:1005F00008B54FF4F07000234FF4A0721946009034
:100600004FF6E07000F09EFA012081490870F9E091
:100610007F490978491E7F4B1B685A5C7C490978E1
:10062000C91C01EB810148004FF478434FF49671E7
:1006300000F094FB76490978491E774B1B685A5C99
:100640007349097801EB8101480000234FF48C7154
:1006500000F084FB6E490978491E704B1B685A5C98
:100660006B49097801EB8101480000234FF4827146
:1006700000F074FB66490978491E694B1B685A5C97
:100680006349097801EB810148000023F02100F063
:1006900065FB5F490978491E624B1B685A5C5C49DF
:1006A000097801EB810148000023DC2100F056FBB2
:1006B00057490978491E5C4B1B685A5C54490978B4
:1006C00001EB810148000023C82100F047FB50499D
:1006D0000978491E554B1B685A5C4D49097801EB56
:1006E000810148000023B42100F038FB4849097813
:1006F000491E4F4B1B685A5C4549097801EB810143
:1007000048000023A02100F029FB41490978491E37
:10071000484B1B685A5C3E49097801EB810148004F
:1007200000238C2100F01AFB39490978491E424BFD
:100730001B685A5C3649097801EB810148000023A7
:10074000782100F00BFB32490978491E3B4B1B68AE
:100750005A5C2F49097801EB81014800002364218C
:1007600000F0FCFA2A490978491E354B1B685A5C8F
:100770002749097801EB810148000023502100F04E
:10078000EDFA23490978491E2E4B1B685A5C204913
:10079000097801EB8101480000233C2100F0DEFADA
:1007A0001B490978491E284B1B685A5C184909786F
:1007B00001EB810148000023282100F0CFFA144901
:1007C0000978491E214B1B685A5C1149097801EBD5
:1007D000810148000023142100F0C0FA0C49097877
:1007E000491E1B4B1B685A5C0949097801EB8101C2
:1007F00048000023194600F0B1FA05480078401C73
:10080000034908700248007817287FF701AF08BD38
:10081000120000204000002044000020480000207A
:100820004C00002050000020540000205800002000
:100830005C000020600000206400002068000020B0
:100840006C00002070000020740000207800002060
:100850007C00002008B54FF4F07000234FF4A07224
:10086000194600904FF6E07000F06CF97820822372
:1008700002463C2100901F2000F064F964208C2384
:100880000246462100904FF4FC6000F05BF90F2017
:10089000A02302465A2100904FF4784000F052F90C
:1008A0000F20BE2302465A2100904FF4784000F0FA
:1008B00049F90F20A02302466E210090002000F08D
:1008C00041F90F20BE2302466E210090002000F067
:1008D00039F90F20BE2302466E210090002000F05F
:1008E00031F90F20D2230246962100904FF6FF7077
:1008F00000F028F90420DC2302469E21009000200D
:1009000000F020F90420DC2302469821009000200A
:1009100000F018F90420D723062298210090002027
:1009200000F010F901206549087014E06349097866
:10093000491E634B1B685A5C6049097801EB8101D1
:1009400048004FF47843502100F008FA5B480078E3
:10095000401C5A490870594800781728E6DD0120E4
:100960005649087014E055490978491E554B1B68D3
:100970005A5C5249097801EB810148004FF47843F1
:100980006E2100F0EBF94D480078401C4B4908708F
:100990004A4800781728E6DD01204849087015E02C
:1009A00046490978491E484B1B685A5C43490978F7
:1009B000891C01EB8101480000234FF4967100F07F
:1009C000CDF93E480078401C3C4908703B4800780F
:1009D0001428E5DD01203949087022E037490978FB
:1009E000491E3A4B1B685A5C3449097801EB810176
:1009F000480000230A2100F0B1F930490978491E66
:100A0000334B1B685A5C2D49097801EB8101480082
:100A100000231E2100F0A2F928480078401C274935
:100A20000870264800780A28D8DD0120234908707C
:100A300015E022490978491E264B1B685A5C1F495C
:100A4000097801EB8101490001F1AA00002314217A
:100A500000F084F919480078401C184908701748BC
:100A600000780628E5DB00201449087020E01349CF
:100A70000978C91CCAB21149097801EB81018900C2
:100A800001F16E0000230A2100F0B4F90B49097846
:100A900001EB8101890001F16E00002307490A780A
:100AA0001E2100F0A7F905480078401C0349087092
:100AB000024800780328DADB08BD0000120000209D
:100AC000900000208C000020880000208000002082
:100AD000840000203C00002000204FF0E02108614D
:100AE000034848610846006940F007000861704704
:100AF000A0BB0D0010B503460C462A2000F0BEF93D
:100B0000181200F0B5F9D8B200F0B2F9012000F0E7
:100B1000AFF93F2000F0ACF92B2000F0AFF9201224
:100B200000F0A6F9E0B200F0A3F9012000F0A0F96E
:100B3000DF2000F09DF92C2000F0A0F9104600F015
:100B400097F910BDF0B507460C46059D00262A20F2
:100B500000F094F9201200F08BF9E0B200F088F96F
:100B60001119491EC1F30F2000F082F91119491E15
:100B7000C8B200F07DF92B2000F080F9181200F0C7
:100B800077F9D8B200F074F9E918491EC1F30F20C3
:100B900000F06EF9E918491EC8B200F069F92C207E
:100BA00000F06CF900BF03E0384600F061F9761CF4
:100BB00002FB05F0B042F7D8F0BD000000B5534885
:100BC000406940F48070514948610846806940F0AE
:100BD000080088610846806940F020008861084666
:100BE000806940F0400088610846806940F4807068
:100BF00088614748006820F00F00454908600846B2
:100C0000006840F00300086042480068424908401C
:100C10004049086008460068404908433D4908606B
:100C2000081F006800F0FF20091F086008460068E0
:100C300040F0BB1008603A4800680020384908605E
:100C40000846006840F0BB300860081F006820F0CC
:100C50007040091F08600846006840F03040086096
:100C60003048406820F470202E49486008464068AB
:100C700040F4302048600846006820F00F0008600B
:100C80000846006840F00B00086000204FF020414B
:100C90008861C861244908604FF02040806940F4B1
:100CA00080504FF0204188610846806940F48040C0
:100CB00088610846806940F0100088610846C06974
:100CC000C8610846C06940F00100C8610846C069B3
:100CD00040F47060C86114480068C1F81C011248F3
:100CE0000068C1F81C010846D0F81C0140F44070AF
:100CF000C1F81C010846806940F00100886100F0DD
:100D000015F8012002490C31086000BD00100240B6
:100D1000000C01400414014000F0FF00BB0B00BBBD
:100D200004180140002001401C0100A000B5012072
:100D300000F0A4F8112000F0A1F83A2000F09EF88D
:100D4000552000F095F8292000F098F8362000F0A2
:100D500095F8CA2000F08CF800BD00002DE9F84F8E
:100D600081468A4615469B46102708200090202D74
:100D700001DB7F2D01DDBDE8F88FA5F12000C5B2B4
:100D800000242CE04FF0000822E0002619E018486B
:100D900000EB0510012101EB4601091B405C40FA04
:100DA00008F000F0010050B10AEB080202EBC402A7
:100DB00091B209EB060290B25A46FFF79BFE701CF7
:100DC000C6B200988642E2DB08F1010000F0FF089D
:100DD00007EBD771B8EB610FD7DB601CC4B2F91712
:100DE00007EB5171B4EBE10FCCDB00BFC3E70000B0
:100DF000FA2B00082DE9F84F8046894692469B461B
:100E0000102610200090002428E000271FE0002575
:100E100018E0164800EB4A10012101EB4501091BBF
:100E2000405C384100F0010050B109EB070202EBD1
:100E3000C40291B208EB050290B25A46FFF75AFE7F
:100E4000681CC5B200988542E3DB781CC7B206EB8C
:100E5000D671B7EB610FDADB601CC4B2F11706EB99
:100E60005171B4EBE10FD0DBBDE8F88FEA31000837
:100E700001490880704700000008006C01490880A3
:100E800070470000FE07006C124AD26942F002026D
:100E9000104BDA61104A1080121F11800E4A203A5E
:100EA000128842F001020C4B203B1A800A4A2C3A6D
:100EB000128842F00102084B2C3B1A804523074A56
:100EC0001370074A126842F000524FF0E023C3F853
:100ED00000217047001002402C0400401DE400E097
:100EE00000E100E02DE9F05F05460E46300101F01B
:100EF00025FD8146284905FB01F001F01FFD8246D2
:100F0000494601F039FC0746384601F0F7FC84B247
:100F1000204601F013FD8346394601F0EFFD82467D
:100F20004FF0834101F01EFD814601F0E7FC804651
:100F30004FF6FF7000EA041404EB080084B217486F
:100F4000806940F00400154988610846806940F4D2
:100F5000804088611248006820F47F601049086072
:100F60000846006840F40B6008600C48C06840F414
:100F700080400A49C8600846C06820F48040C860C4
:100F800008480480001D008842F208010843054912
:100F9000091D0880BDE8F09F40420F00001002408C
:100FA00004080140083801402DE9F05F05460E466F
:100FB000300101F0C3FC8146284905FB01F001F036
:100FC000BDFC8246494601F0D7FB0746384601F092
:100FD00095FC84B2204601F0B1FC8346394601F00D
:100FE0008DFD82464FF0834101F0BCFC814601F04B
:100FF00085FC80464FF6FF7000EA041404EB0800FD
:1010000084B21748806940F0040015498861084699
:10101000C06940F40030C8611248006820F47F4085
:10102000104908600846006840F40B4008600C480E
:10103000006940F400300A4908610846006920F45C
:101040000030086108480480001D008842F2080151
:1010500008430549091D0880BDE8F09F40420F0084
:101060000010024000080140084400400721002011
:10107000234A5268234B1A40214B5A601A46126881
:10108000214B1A401E4B1A601A46126842F48032F5
:101090001A6000BF1A4A1268520C002AFAD04FF4A4
:1010A0008062174B5A601A46526842EA81425A607F
:1010B0001A46526842F480325A60144A126842F06A
:1010C0003002124B1A600E4A126842F080720C4BCA
:1010D0001A6000BF0A4A1268520E002AFAD0084A63
:1010E000526842F00202064B5A6005E0044A526818
:1010F000C2F3870000F003000228F7D17047000018
:10110000001002400000FFF8FFFFF6FE0020024042
:101110002548806940F040002349886123480068E1
:1011200020F47060214908600846006840F40060BF
:1011300008601E480C30006840F004001B490C3168
:1011400008601948806940F0010017498861184813
:10115000806820F47060164988600846806840F412
:10116000806088601348006840F0040011490860FE
:1011700010480C30006840F004000E490C31086043
:1011800065210D4801700D48006820F480704FF013
:10119000E021C1F800010846D0F8000140F4807059
:1011A000C1F8000170470000001002400018014023
:1011B000000001400004014008E400E000E100E01C
:1011C00000BFFEE77047000010B5044643480078B2
:1011D000012839D142480078012835D1092C32D272
:1011E000DFE804F02B3105310E31183122003D4A81
:1011F00011785278521CD0B2022200F03DFB22E05E
:10120000384A1278521ED1B2364A5078042200F081
:1012100033FB18E0334A1278521CD1B2314A50786D
:10122000062200F029FB0EE02E4A11785278521E59
:10123000D0B2082200F020FB05E000202849087009
:1012400001F04EF800BF0EE02448007801280AD1D2
:101250002348007838B92CB901202149087001F0E1
:101260003FF800BF00BF1D480078032803D01B488B
:101270000078022804D114B900F0E4FB00BF00BFDD
:101280001648007804281DD1012C0ED0022C10D055
:10129000032C12D0052C14D1052010490870002011
:1012A00000F0ECF9FFF7A4F90BE0012000F0AEFE2E
:1012B00007E0022000F0AAFE03E0032000F0A6FEF3
:1012C00000BF00BF05480078052805D10B2C02D1CE
:1012D00000F0B8FB00BF00BF10BD00009A00002066
:1012E0009B000020980000207047704710B500F068
:1012F00001F810BD0CB50020019000903348006843
:1013000040F480303149086000BF3048006800F484
:10131000003000900198401C0190009818B9019885
:10132000B0F5A06FF1D12948006800F4003010B189
:101330000120009001E0002000900098012843D196
:101340002348006840F01000214908600846006802
:1013500020F0030008600846006840F002000860C2
:101360001A4840681949486008464068486008467D
:10137000406840F4806048600846406820F47C1073
:1013800048600846406840F4E81048600846006835
:1013900040F08070086000BF0C48006800F00070EA
:1013A0000028F9D00948406820F003000749486048
:1013B0000846406840F00200486000BF03484068AB
:1013C00000F00C000828F9D10CBD0000001002400C
:1013D0000020024005480078401C04490870044879
:1013E0000078401C0249087070470000100000207F
:1013F0001100002010B51348006840F001001149A9
:10140000086008464068104908400E494860084690
:1014100000680E4908400B4908600846006820F43F
:10142000802008600846406820F4FE0048604FF4C1
:101430001F008860FFF75AFF4FF000600449086002
:1014400010BD0000001002400000FFF8FFFFF6FE94
:1014500008ED00E000B51F48008800F0010088B3E7
:101460001D480078012809D11C480078012805D1C1
:1014700001F014F801F0DAF801F0B2F8164800783B
:1014800003280BD11648006840F02000144908607A
:101490001448006880F02000124908600E48007867
:1014A00002280FD10F48001D006840F020000D49B0
:1014B000091D08600A48001F006880F020000849E4
:1014C000091F08600348008820F0010001490880D6
:1014D00000BD0000100400409A0000209B00002086
:1014E000100C01400C18014010B5024600201EE00F
:1014F000012A0AD10B5C104C238000BF0E4B1B1F2E
:101500001B8803F08003002BF8D0022A0AD10B5C61
:101510000A4C238000BF094B1B1F1B8803F080036C
:10152000002BF8D0FF2800D104E0431CD8B20B5C9C
:10153000002BDDD100BF10BD043801400444004041
:1015400000BFFEE710B500203E4908703E49087014
:1015500059E03E480078012804D002281BD0032817
:101560004BD131E03A483849097810F8110000EBC6
:101570004000384901EB80003549334A127801EBCD
:1015800042014978405C022804D12E480078401C72
:101590002C49087031E030482B49097810F81100C7
:1015A00000EB40002B4901EB80012B48264A1278C2
:1015B00000EB42004078085C022804D12148007802
:1015C000401C2049087018E024481F49097810F889
:1015D000110000EB40001F4901EB80001F491A4A2F
:1015E000127801EB42014978405C022804D1154889
:1015F0000078401C1349087000BF00BF12480078F3
:10160000401C114908701048007815490978884233
:101610009FDB0C4800781349087008460078104991
:10162000097888420CD103200F49087000F036FF7A
:1016300000F056FE00F0DCFE0CA10220FFF754FF84
:1016400010BD00009E00002012000020A00000201D
:1016500015040020D00400200104002029040020EB
:101660009C0000209D0000209A000020506C6179B1
:1016700065722077696E2121210A000018B50446A1
:101680004FF4A0700023F022194600902046FFF787
:1016900059FA18BDF8B506460C461546012E57D125
:1016A00014200090601C00EB80008000C0F58C705E
:1016B00083B205EB8500810014224BF6CB40FFF787
:1016C00041FA02200090601C40F21D12142707FB13
:1016D000102083B205EB850081003A4640F2FF708E
:1016E000FFF730FA02200090601C40F2271207FB3F
:1016F000102083B205EB850081003A4640F2FF706E
:10170000FFF720FA14200090601C00EB800080009E
:10171000C0F58C7083B205EB85008000411D02226C
:1017200040F2FF70FFF70EFA14200090601C00EBEF
:1017300080008000C0F58C7083B205EB85008000CE
:1017400000F10F01022240F2FF70FFF7FBF924E0E5
:10175000022E11D114200090601C00EB800080004C
:10176000C0F58C7083B205EB85008100142247F62A
:101770001F70FFF7E7F910E014200090601C00EBE9
:1017800080008000C0F58C7083B205EB850081007D
:1017900014224FF6FF70FFF7D5F9022E19D104EB92
:1017A0004400334901EB8000405D032811D114202F
:1017B0000090601C00EB80008000C0F58C7083B24C
:1017C00005EB8500810014224FF62050FFF7BAF98F
:1017D0004DE004EB4400264901EB8000405D032806
:1017E00045D114200090601C00EB80008000C0F503
:1017F0008C7083B205EB8500810014224FF61040F7
:10180000FFF7A0F900201B4908702CE0621C02EBD6
:1018100082029200C2F58C72164B1B781A4491B268
:1018200005EB8502134B1B7803EB82000022FFF7C8
:1018300061F9621C02EB82029200C2F58C720D4BC0
:101840001B781A4491B205EB850292001432094BC1
:101850001B78D21A90B20022FFF74CF905480078A5
:10186000401C04490870034800781428CEDBF8BDFA
:10187000600500201400002070B504460D46164691
:1018800004EB44006D4901EB8000405D01287DD0F0
:1018900004EB440001EB8000405D022877D1022E6A
:1018A00006D0042E2BD0062E51D0082E26D179E05A
:1018B000601C00EB4000614901EB8000405D0128A5
:1018C0001CD0601C00EB400001EB8000405D022852
:1018D00014D0002004EB4401584A02EB8101485522
:1018E0000221601C00EB400002EB8000415554488F
:1018F0004078401C52494870FFF724FE79E004EB21
:1019000044004E4901EB8001681E085C01281DD08F
:1019100004EB4400494901EB8001681E085C022881
:1019200014D0002004EB4401444A02EB81014855E5
:10193000022104EB440002EB8002681E115440486F
:101940000078401E3E490870FFF7FCFD51E004EBB3
:1019500044003A4901EB8001681C085C012820D052
:1019600004EB4400354901EB8001681C085C022847
:1019700017D0002004EB4401304A02EB81014855A6
:10198000022104EB440002EB800201E054E031E06C
:10199000681C11542A480078401C29490870FFF738
:1019A000D1FD26E0601E00EB4000244901EB8000E1
:1019B000405D01281CD0601E00EB400001EB800060
:1019C000405D022814D0002004EB44011B4A02EBC6
:1019D000810148550221601E00EB400002EB8000AF
:1019E000415517484078401E15494870FFF7AAFD39
:1019F00000BF21E0022E06D0042E0AD0062E0ED003
:101A0000082E18D111E00E484078401C0C4948704F
:101A100011E00B480078401E094908700BE00848A7
:101A20000078401C0649087005E005484078401ED3
:101A30000349487000BF00BF70BD0000D004002003
:101A40009800002000B5042008490870FEF702FF46
:101A50000748006840F02000054908600548006814
:101A600040F020000349086000BD00009A000020FB
:101A700010180140100C014018B50020EC49087006
:101A800042E10020EB49087034E1E948007800EBBE
:101A90004000E94901EB8000E6490978405C0128F3
:101AA0006BD114200090E2480078401C00EB8000CD
:101AB0008000C0F58C7083B2DE48007800EB8000B7
:101AC000810014224BF6CB40FFF73CF80220009037
:101AD000D7480078401C40F21D12142404FB10204B
:101AE00083B2D448007800EB80008100224640F2A7
:101AF000FF70FFF727F802200090CD480078401CC7
:101B000040F2271204FB102083B2CA48007800EB91
:101B100080008100224640F2FF70FFF713F8142086
:101B20000090C3480078401C00EB80008000C0F5A6
:101B30008C7083B2BF48007800EB80008000411DAC
:101B4000022240F2FF70FEF7FDFF14200090B8481B
:101B50000078401C00EB80008000C0F58C7083B2E0
:101B6000B448007800EB8000800000F10F010222F1
:101B700040F2FF70FEF7E6FFB7E0AD48007800EBFB
:101B80004000AD4901EB8000AA490978405C022879
:101B900015D114200090A6480078401C00EB80006E
:101BA0008000C0F58C7083B2A248007800EB800002
:101BB0008100142247F61F70FEF7C4FF95E09F488E
:101BC00000789C49097888421BD19C484078984904
:101BD0000978884215D11420009095480078401C5F
:101BE00000EB80008000C0F58C7083B291480078D3
:101BF00000EB8000810014224FF64670FEF7A2FF32
:101C000073E08B48007800EB40008D4901EB8000C9
:101C100088490978405C032852D1142000908448F8
:101C20000078401C00EB80008000C0F58C7083B20F
:101C30008048007800EB8000810014224FF61040AD
:101C4000FEF780FF00207F49087034E0784A127860
:101C5000521C02EB82029200C2F58C72794B1B7807
:101C60001A4491B2734A127802EB8202754B1B78C8
:101C700003EB82000022FEF73DFF6D4A1278521CF2
:101C800002EB82029200C2F58C726E4B1B781A44F2
:101C900091B2684A127802EB820292001432694BC8
:101CA0001B78D21A90B20022FEF724FF6548007814
:101CB000401C64490870634800781428C6DB14E0AF
:101CC000142000905A480078401C00EB80008000EF
:101CD000C0F58C7083B25748007800EB800081001B
:101CE00014224FF6FF70FEF72DFF52480078401C7B
:101CF000504908704F4800780C28FFF6C6AE4C4893
:101D00000078401C4A490870494800780C28FFF6C2
:101D1000B8AE28204FF48C73F022002100900846C2
:101D2000FEF710FF28200023F022194600901846E5
:101D3000FEF708FF00203E49087016E04249096896
:101D40003B4B1B78CA5C3A49097801EB8101490099
:101D500001F132004FF6FF734FF49171FEF7FEFF71
:101D600033480078401C3249087031480078102808
:101D7000E4DB00202E49087026E0344909682C4B2A
:101D80001B78CA5C2A49097801EB8101490001F1FD
:101D90000A004FF6FF730A21FEF7E0FF2C4909689D
:101DA000234B1B78CA5C2249097801EB8101490069
:101DB00001F196004FF6FF730A21FEF7CFFF1C4892
:101DC0000078401C1A490870194800780628D4DBAE
:101DD0002048006802784FF6FF730A215020FEF772
:101DE000BDFF1D4800780A2190FBF1F01B490870E7
:101DF000194800780A2190FBF1F201FB1200184902
:101E000008701448006815490978425C4FF6FF7362
:101E10000A21D220FEF7A2FF0E4800681049097877
:101E2000425C4FF6FF730A21DC20FEF797FF18BDD6
:101E30001200002013000020D00400209400002095
:101E400060050020140000201C000020300000204D
:101E50003400002038000020180000201500002069
:101E600016000020FFF702F94FF416512420FFF767
:101E70009BF84FF416514820FFF734F8FEF79EFE0A
:101E8000FEF724FB0520FEF74BFBFEF75DFBFFF79B
:101E90003FF941F61F4140F2E140FEF7F5FFFEF742
:101EA0001BFE2DA10220FFF71FFB31A10220FFF72F
:101EB0001BFB37A10220FFF717FB3FA10220FFF712
:101EC00013FB0020FFF7DAFB4CF25030FEF7FAF973
:101ED000FFF7B8FD3EE041480078012822D1404894
:101EE000007801281ED13F48007855281ADB0020D1
:101EF0003C4908703C48007820B13B480078401EBF
:101F0000394908703848007860B900F08FFB02202A
:101F10003249087000F0E4F900F06AFA33A10220B7
:101F2000FFF7E2FA354800680B2803D34FF400604E
:101F30003349086033480068401E3249086008464B
:101F4000006838B94FF4FA60086000202E49086034
:101F50002A490860BFE7000057656C636F6D652014
:101F6000746F20536F6B6F62616E2121210A000034
:101F7000546869732067616D65206973206D6164C1
:101F8000652062792047524F55502031310A0000B8
:101F90005349443A203131353531333631363820E2
:101FA0004C6169204368616B2059616E2C20456447
:101FB000776172640A0000005349443A2031313598
:101FC000353134343537372043686F772050616BB3
:101FD00020486F2C204976616E0A00009A0000208C
:101FE0009B0000201000002018000020506C617938
:101FF0006572206C6F73652121210A0004000020A6
:1020000014040140080000200C00002010B5044614
:1020100099A10220FFF768FA0020FFF72FFB9948EB
:10202000047001209849087098490870012C04D068
:10203000022C0ED0032C24D117E002209449087002
:1020400028209449087005209349087002204870A0
:1020500017E003208E4908702D208E490870022059
:102060008D490870042048700BE0032088490870EF
:102070006320884908700120874908700320487050
:1020800000BF00BF83480078844908708148007809
:1020900083490870002083490870834908707E488E
:1020A0000078824908707C48407848707A48007807
:1020B0007F49087078484078487000207D49087052
:1020C000D1E000207C490870C3E0012C04D0022C30
:1020D0003FD0032C3CD179E07648007800EB4000FB
:1020E000764901EB800074490978405C71490978B0
:1020F00001EB4101724A02EB81016F4A1278885468
:102100006C48007800EB40006C4901EB80006A49A4
:102110000978405C6749097801EB4101694A02EBA3
:102120008101654A127888546248007800EB4000CB
:10213000654901EB800060490978405C5D49097898
:1021400001EB4101614A02EB81015B4A127888543C
:1021500079E05848007800EB40005D4901EB8000D1
:1021600055490978405C5349097801EB4101544ACB
:1021700002EB8101504A127888544E48007800EBF7
:102180004000534901EB80004B490978415C4948C4
:10219000007800EB40004B4A02EB8000464A127880
:1021A00081544448007800EB40004A4901EB80002C
:1021B00041490978405C3F49097801EB4101434AB4
:1021C00002EB81013C4A127888543CE0394800789F
:1021D00000EB4000404901EB800037490978405C42
:1021E0003449097801EB4101354A02EB8101324A59
:1021F000127888542F48007800EB4000364901EBF4
:1022000080002D490978405C2A49097801EB410199
:102210002C4A02EB8101284A12788854254800781C
:1022200000EB40002D4901EB800023490978415C17
:102230002048007800EB4000244A02EB80001E4A50
:102240001278815400BF00BF1B480078401C1A4917
:102250000870194800780C28FFF637AF1548007849
:10226000401C14490870134800780C28FFF629AF69
:10227000FFF702FC10BD000047414D45205354417B
:1022800052540A00A00000209A0000209B00002069
:102290009C0000201700002094000020180000205F
:1022A000190000209D0000209F00002096000020C3
:1022B000980000201200002013000020C10100201F
:1022C00040040020D00400205102002060050020BE
:1022D000A100002031010020E10200207103002054
:1022E00008B528204FF48C73F02200210090084696
:1022F000FEF728FC38480078012845D13748007897
:1023000001281FD100203649087016E035490968B8
:10231000334B1B78CA5C3249097801EB81014900D3
:1023200001F132004FF6FF734FF49171FEF716FD85
:102330002B480078401C2A4908702948007810284A
:10234000E4DB21E025480078F0B90020244908703A
:1023500016E025490968224B1B78CA5C2049097898
:1023600001EB8101490001F132004FF6FF734FF498
:102370009171FEF7F3FC1A480078401C1849087068
:10238000174800781128E4DB13480078032803D0AD
:102390001148007802281ED100201149087016E06B
:1023A000124909680E4B1B78CA5C0D49097801EB8C
:1023B0008101490001F132004FF6FF734FF4917132
:1023C000FEF7CCFC06480078401C0549087004481C
:1023D00000781028E4DB08BD9A0000209B00002054
:1023E000120000201C0000202000002024000020FB
:1023F00008B528200023F022194600901846FEF761
:10240000A1FB2248007803281DD100202049087034
:1024100015E0204909681E4B1B78CA5C1C490978E5
:1024200001EB8101490001F114004FF6E0730A212C
:10243000FEF794FC16480078401C154908701448B3
:1024400000781228E5DB1148007802281DD1002011
:102450000F49087015E0104909680D4B1B78CA5CDC
:102460000B49097801EB8101490001F132004FF479
:1024700078430A21FEF772FC05480078401C0449A5
:102480000870034800780D28E5DB08BD9A0000209D
:1024900012000020280000202C00002018B5002089
:1024A000484908704BE00020474908703EE0454825
:1024B000007800EB4000454901EB80004249097873
:1024C000415C4048007800EB4000414A02EB80004C
:1024D0003D4A1278805C814223D03A49097801EB69
:1024E00041013A4A02EB8101374A1278885C364949
:1024F0000A7834490978FFF7CDF83248007800EBC4
:102500004000324901EB80002F490978405C2D4999
:10251000097801EB41012E4A02EB81012A4A127827
:10252000885429480078401C2749087026480078BC
:102530000C28BCDB23480078401C22490870214845
:1025400000780C28AFDB23480078234909788842BB
:1025500005D12048407820494978884230D01E4B28
:102560005B7803EB4303194C04EB83031A4C247888
:10257000185D194B1A785978FFF78CF814200090E1
:1025800014484078401C00EB80008000C0F58C703F
:1025900083B21048007800EB8000810014224FF6CF
:1025A0004670FEF7CFFA0B4800780B4908700948CF
:1025B000407848700948006880F0200007490860AA
:1025C00018BD00001200002013000020D0040020DD
:1025D0004004002098000020960000200C180140C4
:1025E00008B50F4800780F490978884216D028208E
:1025F00000232422502100901846FEF7A3FA0A482F
:10260000006807490978425C4FF6FF730A215020A1
:10261000FEF7A4FB024800780249087008BD0000DC
:102620009D0000209F0000203800002008B51C48B5
:1026300000781C490978884231D0282000232422C0
:10264000CE2100901846FEF77DFA154800780A2141
:1026500090FBF1F014490870114800780A2190FBB2
:10266000F1F201FB120011490870114800680E498F
:102670000978425C4FF6FF730A21D220FEF76EFB09
:102680000B48006809490978425C4FF6FF730A213C
:10269000DC20FEF763FB024800780249087008BDA1
:1026A000180000201900002015000020160000204E
:1026B0003800002090EA010F48BF81F0004100F18E
:1026C0002E82421A3CBF801A89184FEAD0524FF02E
:1026D0007F4C1CEA410FA2EBD15318BF9CEA026F5A
:1026E00000F03B804FF0004C4CEA00204CEA012106
:1026F00021FA03FC10EB0C0C1ED202F1FF325FEA50
:102700001C2040EBC25038BF70471CF07F0F4FEACF
:10271000400C18BFBCF17F4F38BF7047C3F1200396
:10272000994008BF20F00100BCF17F4F38BF7047CF
:10273000A0F1C04000F0DDB94FEA3C00000A40EBD8
:10274000C25028BF1CF0FF0F4FEA400CE6D018BF64
:10275000BCF17F4F38BF7047EAE79CEA026F05D0B3
:1027600010EA5C0F08BF00F00040704710B500F0A1
:102770007AF900BF64FBBE3E4FF47F0C1CEAD01216
:102780001EBF1CEAD11392EA0C0F93EA0C0F00F063
:10279000858090EA010F48BF42F4807240F4000C3B
:1027A00041F400002CF07F4120F07F4000B58142D1
:1027B000A2EB03020FF2081CACEB504EC0F100007C
:1027C0009EF800E04FEA4E0E00FB0EFC38BF4900B9
:1027D0004FEA2C1C02F5FA020CFB0EF34FEACE1E58
:1027E0004FEA112C4FEAC1210EEB635E42EB22420D
:1027F0000EFB0CFC4FEA1C5300FB03114FEA112C9B
:102800004FEA01310EFB0CFC4FEADC4C00FB0C11D3
:10281000C14228BF09184CEB03335DF804EB10EB01
:10282000410143EBC250B2F57C0F38BF704729D548
:1028300012F0F00F1CBF00F1C04000F000407047E4
:10284000008182838485868788898B8C8D8E8F9189
:102850009293959697999A9C9D9FA0A2A3A5A7A8AD
:10286000AAACAEB0B2B3B5B7B9BCBEC0C2C5C7C9D9
:10287000CCCED1D4D7D9DCDFE2E6E9ECF0F3F7FA3D
:10288000FE0000004FEA400C0CF1807CBCF17E4F52
:1028900028BF7047B0F1C04000F02BB990EA010F9B
:1028A0000CEAD11348BF42F48072624538BF6345D9
:1028B00007D213F47F0F16D080EA010000F0004029
:1028C000704710B500F0CFF8097EFC3E00F005B867
:1028D00080EA010000F00040704780EA010000F04B
:1028E000004000F006B912F47F0F04BF02487047A1
:1028F00080EA010000F0FDB80000C07FC10DD1F1F9
:102900009E0206DB4FEA002343F0004323FA02F065
:102910007047004207D54FEA4001B1F1FE4F02D2A5
:102920004FF00000704710B500F09DF849922480E8
:10293000002070476FEA200070470000B0FA80F373
:1029400010FA03F2C3F19D030AD0D90501EB12205E
:10295000530638BF704700F1010008BF20F00100A6
:10296000704700004FF47F0C1CEAD0121EBF1CEA17
:10297000D11392EA0C0F93EA0C0F00F0478090EA13
:10298000010F48BF42F480724FF0004C4CEA002027
:102990004CEA012102EB0302A0FB0113A2F50002A5
:1029A000002918BF43F001035B0028BF4FEA33033F
:1029B00042EB22425FEA132C4CEBC2502EBFBCEB21
:1029C000436FB2F57C0F70474FEA036CBCF1004FC8
:1029D00008BF20F00100B2F57C0F38BF70470BD55F
:1029E00082F0FF0212F5803FC8BF704700F1C0407F
:1029F000D8BF00F00040704700F5000C5FEA4C0CB7
:102A000048BF7047B0F1C04000F073B890EA010FC2
:102A10000CEAD11348BF42F48072624538BF634567
:102A200004D280EA010000F00040704710B500F0C9
:102A30001AF800BF8900013E00F007B800F009B89D
:102A40005FEA410C5FEA1C6C08D080EA010000F0EC
:102A500050B85FEA400C5FEA1C6CF6D14FF00040C2
:102A6000A0F5800070470EF1020E2EF0030E5EF806
:102A7000044B244204D44FEA4102B2F17F4F11D8F3
:102A80004FEA4003B3F17F4F0CD80ED14FEAD07C10
:102A9000B2F17F4F0CEB4C0C0CF1020C08BF4CEB6D
:102AA000D17C04E04FF0080C01E04FEAD17C0CEB44
:102AB0004C0324FA03F404F00704B4F1040C06D226
:102AC0000EEB840CBDE810404CF0010C6047DFE8D1
:102AD0000CF0070802024FF00040A0F5800010BD86
:102AE0000846420018BFD2F1807288BF00F0004053
:102AF00010BDFF2141EAD050C005704780F0004072
:102B000090EA010F7FF5DDAD81F0004100F007B8DC
:102B100090EA010F48BF81F000413FF5D2AD421A63
:102B200004D882F00042A0EB020011444FEAD052D8
:102B30004FF07F4C1CEA410FA2EBD15318BF9CEA27
:102B4000026F4AD04FF0004C4CEA00204CEA0121C1
:102B500021FA03FCB0EB0C0C0FD412F0FE0F36D0B0
:102B60005FEA4C001DD5001240EBC25038BF7047E1
:102B70001CF03F0F18BF70470BE0A2F101025FEAA3
:102B80001C2040EBC25038BF70471CF07F0F18BFAD
:102B90007047C3F12003994014BF401E20F001008C
:102BA000704780084FEA122308BF7047B0FA80FCD4
:102BB000A2EB0C02CCF1280C60FA0CF093EA122F75
:102BC00004BF00EBC25070474FEAC3707047130A4E
:102BD0005FEADC1008BF7047F6E79CEA026F04D09A
:102BE00010EA5C0F08BF0020704710B5FFF73BFFED
:102BF00040DFF63E81F0004070470000000000001A
:102C000000000000000000000000000000000000C4
:102C10001FCC000C00000000000000000800300085
:102C200060000800300060000000022003FC1E204D
:102C3000022003FC1E200220000000000E181104D8
:102C40003FFF10840C78000000000F0010840F3844
:102C500000C0077818840078000000780F8410C442
:102C600011240E9800E40084000808006800700039
:102C70000000000000000000000000000000000054
:102C800007E0181820044002000000004002200461
:102C9000181807E000000000000002400240018018
:102CA0000FF00180024002400000008000800080A0
:102CB0000FF800800080008000000001000D000E71
:102CC0000000000000000000000000000080008004
:102CD000008000800080008000800000000C000C5C
:102CE00000000000000000000000000000060018C6
:102CF00000600180060018002000000007F00808AE
:102D000010041004080807F000000000080408047C
:102D10001FFC000400040000000000000E0C101452
:102D20001024104411840E0C000000000C18100434
:102D30001104110412880C700000000000E0032050
:102D4000042408241FFC0024000000001F981084A5
:102D500011041104108810700000000007F00888AA
:102D60001104110418880070000000001C001000FD
:102D700010FC13001C001000000000000E3811446D
:102D80001084108411440E38000000000700088CE5
:102D900010441044088807F0000000000000000004
:102DA000030C030C00000000000000000000000104
:102DB000010600000000000000000000008001404B
:102DC0000220041008081004000002200220022043
:102DD0000220022002200220000000001004080847
:102DE0000410022001400080000000000E001200CC
:102DF000100C106C10800F00000003E00C1813E49E
:102E0000142417C4082807D000000004003C03C4A1
:102E10001C40074000E4001C000410041FFC1104C7
:102E2000110411040E880070000003E00C18100457
:102E30001004100410081C10000010041FFC1004E3
:102E400010041004080807F0000010041FFC11040F
:102E5000110417C410040818000010041FFC11040A
:102E6000110017C010000800000003E00C18100447
:102E7000100410441C780040000010041FFC108453
:102E80000080008010841FFC100400001004100457
:102E90001FFC1004100400000000000300011001DA
:102EA00010011FFE10001000000010041FFC110490
:102EB00003801464181C1004000010041FFC10048C
:102EC000000400040004000C000010041FFC1F009C
:102ED00000FC1F001FFC1004000010041FFC0C0469
:102EE000030000E010181FFC100007F00808100491
:102EF00010041004080807F0000010041FFC1084E0
:102F00001080108010800F00000007F008181024B7
:102F10001024101C080A07F2000010041FFC110402
:102F2000110011C011300E0C000400000E1C110421
:102F30001084108410441C38000018001000100485
:102F40001FFC100410001800000010001FF81004EF
:102F50000004000410041FF8100010001E0011E00F
:102F6000001C007013801C0010001FC0103C00E00B
:102F70001F0000E0103C1FC000001004180C1634A5
:102F800001C001C01634180C100410001C001304FA
:102F900000FC13041C00100000000804101C106446
:102FA000108413041C04101800000000000000002E
:102FB0007FFE4002400240020000000030000C0092
:102FC00003800060001C000300000000400240027B
:102FD00040027FFE00000000000000000000200012
:102FE00040004000400020000000000100010001FE
:102FF000000100010001000100010000400040004C
:1030000020000000000000000000000000980124E3
:1030100001440144014400FC000410001FFC00882E
:1030200001040104008800700000000000700088A6
:103030000104010401040088000000000070008801
:103040000104010411081FFC0004000000F8014401
:1030500001440144014400C80000000001040104CF
:103060000FFC1104110411001800000000D6012902
:103070000129012901C90106000010041FFC008478
:1030800001000100010400FC000400000104190417
:1030900019FC00040004000000000000000300010F
:1030A0000101190119FE0000000010041FFC00249A
:1030B000004001B4010C01040000000010041004E1
:1030C0001FFC0004000400000000010401FC0104D6
:1030D000010001FC0104010000FC010401FC00846A
:1030E00001000100010400FC0004000000F80104DC
:1030F00001040104010400F80000010101FF008542
:1031000001040104008800700000000000700088C5
:1031100001040104010501FF00010104010401FC97
:1031200000840104010001800000000000CC0124A3
:103130000124012401240198000000000100010085
:1031400007F80104010400000000010001F8000478
:1031500000040004010801FC00040100018001706A
:10316000000C001001600180010001F0010C003032
:1031700001C00030010C01F0010000000104018CCD
:1031800000740170018C01040000010101810171D2
:10319000000E001801600180010000000184010C94
:1031A000013401440184010C000000000000000013
:1031B000000001003EFC4002400200000000000050
:1031C0000000FFFF0000000000000000400240027D
:1031D0003EFC0100000000000000000060008000D4
:1031E00080004000400020002000000000027FFC22
:1031F0004000401E53907D54555447FC455455584B
:103200007B92501E00000000000000000000210220
:103210001084084800001C0022223EBA23EF3EBA68
:1032200032221C00000000000000000800100020F6
:103230007F4041005370550879285508537041006C
:103240007F4000200010000800000000000000087F
:103250001FFC1000108012B812A817A812B8108016
:1032600010041FFC000000000000000000200140CE
:1032700001801FFC01800140002007FC0A44124429
:10328000024403FC000000000000000000000C8C61
:1032900002B002A0000006800CBC04A41FA404A479
:1032A00004BC00800000000000000000496E737440
:1032B00072757374696F6E205061676520202020DD
:1032C000202020002020706C617965722063686F77
:1032D0006F73652020202020200000002020746FC4
:1032E0002072657475726E206D656E7520202020C9
:1032F00020000000332E4F6E636520616C6C2062ED
:103300006F7865732061726520202000342E546828
:10331000657265206172652033206C6576656C731B
:10332000202020002020626F78657320746F207445
:10333000617267657473202020000000202074688B
:10334000652067616D652066696E697368656420D4
:1033500020000000322E506C61796572206E656528
:103360006420746F207075736820200020207075B1
:103370007368656420746F2074617267657473206C
:103380002000000054494D453A2000002020636190
:103390006E206C65617665207468652067616D6577
:1033A000200000002020696E207468652067616D30
:1033B0006520746F206C65742000000047414D4506
:1033C000204F56455221212100000000434F4E4717
:1033D000524154554C4154494F4E53212121000034
:1033E00057656C636F6D6520746F20536F6B6F62F0
:1033F000616E21005072657373203520746F2069EF
:103400006E737472756374696F6E210050726573A8
:10341000732031323320746F2073656C65637420C0
:103420006C7621004770313100000000352E506C61
:10343000617965722063616E207072657373206BB1
:103440006579320031313535313434353737000064
:1034500031313535313336313638000030313233A1
:10346000343536373839000053434F52453A00005F
:103470005052455353203020746F205245554D45CE
:10348000000000005052455353203020746F2050EC
:103490004155534500000000505245535320302001
:1034A000746F204D454E5500362E4166746572206E
:1034B000706C617965722066696E69736865640015
:1034C000312E4974206973206120626F78207075F5
:1034D00073682067616D650020206F7220676F2020
:1034E000746F206E657874206C6576656C000000E2
:1034F00020207468652065617379206C6576656C41
:103500002C74686579000000283500080000002050
:10351000400400006C0100080C3600084004002044
:1035200010080000C8010008810312204E138434E3
:103530001B0870041A980413CC331B08BC041A68C7
:103540000C1A84081A5C081A240413AC321B08C035
:10355000081A54141A24041AF4101A6C081A3C0499
:103560001A0C041AA4041AC4141A2C241ADC081AFB
:10357000A8081AF0041A8C181AD8081A50041A4409
:10358000042AE03C2934190CD1AA0101D9176A0296
:103590000C19047918490C291B390C5919E924898B
:1035A00048D9061904693C6931091583310263035E
:1035B000796409146D09159D0911E409370C1A0283
:1035C0000C0A130254091B83015A1A030201280929
:1035D000139D9A01C0390C2A02E4690C49FC290C9C
:1035E000292609180C2907B956590C391ED90CF986
:1035F00083E9D209200C0156E701010A020905FD01
:0C360000080408062806110A020A030A42
:040000050800020DE0
:00000001FF
